{
  "_format": "hh-sol-artifact-1",
  "contractName": "BuilderRegistry",
  "sourceName": "contracts/BuilderRegistry.sol",
  "abi": [
    {
      "anonymous": false,
      "inputs": [
        {
          "indexed": true,
          "internalType": "address",
          "name": "builder",
          "type": "address"
        },
        {
          "indexed": false,
          "internalType": "string",
          "name": "cid",
          "type": "string"
        }
      ],
      "name": "BuilderRegistered",
      "type": "event"
    },
    {
      "anonymous": false,
      "inputs": [
        {
          "indexed": true,
          "internalType": "uint256",
          "name": "buildingId",
          "type": "uint256"
        },
        {
          "indexed": true,
          "internalType": "address",
          "name": "builder",
          "type": "address"
        },
        {
          "indexed": false,
          "internalType": "string",
          "name": "cid",
          "type": "string"
        }
      ],
      "name": "BuildingRegistered",
      "type": "event"
    },
    {
      "anonymous": false,
      "inputs": [
        {
          "indexed": true,
          "internalType": "uint256",
          "name": "flatId",
          "type": "uint256"
        },
        {
          "indexed": true,
          "internalType": "uint256",
          "name": "buildingId",
          "type": "uint256"
        },
        {
          "indexed": false,
          "internalType": "string",
          "name": "cid",
          "type": "string"
        }
      ],
      "name": "FlatRegistered",
      "type": "event"
    },
    {
      "inputs": [
        {
          "internalType": "address",
          "name": "",
          "type": "address"
        },
        {
          "internalType": "uint256",
          "name": "",
          "type": "uint256"
        }
      ],
      "name": "builderToBuildingIds",
      "outputs": [
        {
          "internalType": "uint256",
          "name": "",
          "type": "uint256"
        }
      ],
      "stateMutability": "view",
      "type": "function"
    },
    {
      "inputs": [
        {
          "internalType": "address",
          "name": "",
          "type": "address"
        }
      ],
      "name": "builders",
      "outputs": [
        {
          "internalType": "string",
          "name": "cid",
          "type": "string"
        },
        {
          "internalType": "bool",
          "name": "isRegistered",
          "type": "bool"
        }
      ],
      "stateMutability": "view",
      "type": "function"
    },
    {
      "inputs": [
        {
          "internalType": "uint256",
          "name": "",
          "type": "uint256"
        },
        {
          "internalType": "uint256",
          "name": "",
          "type": "uint256"
        }
      ],
      "name": "buildingToFlatIds",
      "outputs": [
        {
          "internalType": "uint256",
          "name": "",
          "type": "uint256"
        }
      ],
      "stateMutability": "view",
      "type": "function"
    },
    {
      "inputs": [
        {
          "internalType": "uint256",
          "name": "",
          "type": "uint256"
        }
      ],
      "name": "buildings",
      "outputs": [
        {
          "internalType": "uint256",
          "name": "buildingId",
          "type": "uint256"
        },
        {
          "internalType": "string",
          "name": "cid",
          "type": "string"
        },
        {
          "internalType": "address",
          "name": "builder",
          "type": "address"
        },
        {
          "internalType": "uint256",
          "name": "pincode",
          "type": "uint256"
        },
        {
          "internalType": "uint256",
          "name": "createdAt",
          "type": "uint256"
        }
      ],
      "stateMutability": "view",
      "type": "function"
    },
    {
      "inputs": [
        {
          "internalType": "uint256",
          "name": "",
          "type": "uint256"
        }
      ],
      "name": "flats",
      "outputs": [
        {
          "internalType": "uint256",
          "name": "flatId",
          "type": "uint256"
        },
        {
          "internalType": "string",
          "name": "cid",
          "type": "string"
        },
        {
          "internalType": "uint256",
          "name": "buildingId",
          "type": "uint256"
        },
        {
          "internalType": "address",
          "name": "builder",
          "type": "address"
        },
        {
          "internalType": "uint256",
          "name": "createdAt",
          "type": "uint256"
        }
      ],
      "stateMutability": "view",
      "type": "function"
    },
    {
      "inputs": [
        {
          "internalType": "address",
          "name": "builder",
          "type": "address"
        }
      ],
      "name": "getBuilderCID",
      "outputs": [
        {
          "internalType": "string",
          "name": "",
          "type": "string"
        }
      ],
      "stateMutability": "view",
      "type": "function"
    },
    {
      "inputs": [
        {
          "internalType": "address",
          "name": "builder",
          "type": "address"
        }
      ],
      "name": "getBuildingsByBuilder",
      "outputs": [
        {
          "internalType": "uint256[]",
          "name": "",
          "type": "uint256[]"
        }
      ],
      "stateMutability": "view",
      "type": "function"
    },
    {
      "inputs": [
        {
          "internalType": "uint256",
          "name": "pincode",
          "type": "uint256"
        }
      ],
      "name": "getBuildingsByPincode",
      "outputs": [
        {
          "internalType": "uint256[]",
          "name": "",
          "type": "uint256[]"
        }
      ],
      "stateMutability": "view",
      "type": "function"
    },
    {
      "inputs": [
        {
          "internalType": "uint256",
          "name": "buildingId",
          "type": "uint256"
        }
      ],
      "name": "getFlatsByBuilding",
      "outputs": [
        {
          "internalType": "uint256[]",
          "name": "",
          "type": "uint256[]"
        }
      ],
      "stateMutability": "view",
      "type": "function"
    },
    {
      "inputs": [],
      "name": "nextBuildingId",
      "outputs": [
        {
          "internalType": "uint256",
          "name": "",
          "type": "uint256"
        }
      ],
      "stateMutability": "view",
      "type": "function"
    },
    {
      "inputs": [],
      "name": "nextFlatId",
      "outputs": [
        {
          "internalType": "uint256",
          "name": "",
          "type": "uint256"
        }
      ],
      "stateMutability": "view",
      "type": "function"
    },
    {
      "inputs": [
        {
          "internalType": "uint256",
          "name": "",
          "type": "uint256"
        },
        {
          "internalType": "uint256",
          "name": "",
          "type": "uint256"
        }
      ],
      "name": "pincodeToBuildingIds",
      "outputs": [
        {
          "internalType": "uint256",
          "name": "",
          "type": "uint256"
        }
      ],
      "stateMutability": "view",
      "type": "function"
    },
    {
      "inputs": [
        {
          "internalType": "string",
          "name": "cid",
          "type": "string"
        }
      ],
      "name": "registerBuilder",
      "outputs": [],
      "stateMutability": "nonpayable",
      "type": "function"
    },
    {
      "inputs": [
        {
          "internalType": "string",
          "name": "cid",
          "type": "string"
        },
        {
          "internalType": "uint256",
          "name": "pincode",
          "type": "uint256"
        }
      ],
      "name": "registerBuilding",
      "outputs": [
        {
          "internalType": "uint256",
          "name": "",
          "type": "uint256"
        }
      ],
      "stateMutability": "nonpayable",
      "type": "function"
    },
    {
      "inputs": [
        {
          "internalType": "uint256",
          "name": "buildingId",
          "type": "uint256"
        },
        {
          "internalType": "string",
          "name": "cid",
          "type": "string"
        }
      ],
      "name": "registerFlat",
      "outputs": [
        {
          "internalType": "uint256",
          "name": "",
          "type": "uint256"
        }
      ],
      "stateMutability": "nonpayable",
      "type": "function"
    }
  ],
  "bytecode": "0x608060405260016006556001600755348015601957600080fd5b50611a56806100296000396000f3fe608060405234801561001057600080fd5b50600436106100f55760003560e01c806377ee577111610097578063b640e07311610066578063b640e073146102ff578063df1fd6bb1461031d578063e24d4a6b1461034d578063e5f1a4b71461036b576100f5565b806377ee57711461025357806381603dda1461028357806384c555ac146102b357806390aa2690146102e3576100f5565b80634c96a062116100d35780634c96a0621461018f5780634e587c8e146101c35780635017fe80146101f35780635a4cf1e414610223576100f5565b8063144ddefc146100fa57806314a9f8da1461012b57806336e913da1461015f575b600080fd5b610114600480360381019061010f9190611018565b61039b565b6040516101229291906110f0565b60405180910390f35b61014560048036038101906101409190611156565b610454565b6040516101569594939291906111a1565b60405180910390f35b610179600480360381019061017491906111fb565b610532565b604051610186919061123b565b60405180910390f35b6101a960048036038101906101a49190611156565b610563565b6040516101ba959493929190611256565b60405180910390f35b6101dd60048036038101906101d891906112b0565b610641565b6040516101ea919061123b565b60405180910390f35b61020d60048036038101906102089190611018565b610672565b60405161021a91906112f0565b60405180910390f35b61023d60048036038101906102389190611377565b610745565b60405161024a919061123b565b60405180910390f35b61026d600480360381019061026891906113d7565b610a26565b60405161027a919061123b565b60405180910390f35b61029d600480360381019061029891906111fb565b610cdf565b6040516102aa919061123b565b60405180910390f35b6102cd60048036038101906102c89190611018565b610d10565b6040516102da91906114f5565b60405180910390f35b6102fd60048036038101906102f89190611517565b610da7565b005b610307610ece565b604051610314919061123b565b60405180910390f35b61033760048036038101906103329190611156565b610ed4565b60405161034491906114f5565b60405180910390f35b610355610f3f565b604051610362919061123b565b60405180910390f35b61038560048036038101906103809190611156565b610f45565b60405161039291906114f5565b60405180910390f35b60006020528060005260406000206000915090508060000180546103be90611593565b80601f01602080910402602001604051908101604052809291908181526020018280546103ea90611593565b80156104375780601f1061040c57610100808354040283529160200191610437565b820191906000526020600020905b81548152906001019060200180831161041a57829003601f168201915b5050505050908060010160009054906101000a900460ff16905082565b600260205280600052604060002060009150905080600001549080600101805461047d90611593565b80601f01602080910402602001604051908101604052809291908181526020018280546104a990611593565b80156104f65780601f106104cb576101008083540402835291602001916104f6565b820191906000526020600020905b8154815290600101906020018083116104d957829003601f168201915b5050505050908060020154908060030160009054906101000a900473ffffffffffffffffffffffffffffffffffffffff16908060040154905085565b6004602052816000526040600020818154811061054e57600080fd5b90600052602060002001600091509150505481565b600160205280600052604060002060009150905080600001549080600101805461058c90611593565b80601f01602080910402602001604051908101604052809291908181526020018280546105b890611593565b80156106055780601f106105da57610100808354040283529160200191610605565b820191906000526020600020905b8154815290600101906020018083116105e857829003601f168201915b5050505050908060020160009054906101000a900473ffffffffffffffffffffffffffffffffffffffff16908060030154908060040154905085565b6003602052816000526040600020818154811061065d57600080fd5b90600052602060002001600091509150505481565b60606000808373ffffffffffffffffffffffffffffffffffffffff1673ffffffffffffffffffffffffffffffffffffffff16815260200190815260200160002060000180546106c090611593565b80601f01602080910402602001604051908101604052809291908181526020018280546106ec90611593565b80156107395780601f1061070e57610100808354040283529160200191610739565b820191906000526020600020905b81548152906001019060200180831161071c57829003601f168201915b50505050509050919050565b60008060003373ffffffffffffffffffffffffffffffffffffffff1673ffffffffffffffffffffffffffffffffffffffff16815260200190815260200160002060010160009054906101000a900460ff166107d5576040517f08c379a00000000000000000000000000000000000000000000000000000000081526004016107cc90611610565b60405180910390fd5b3373ffffffffffffffffffffffffffffffffffffffff166001600086815260200190815260200160002060020160009054906101000a900473ffffffffffffffffffffffffffffffffffffffff1673ffffffffffffffffffffffffffffffffffffffff1614610879576040517f08c379a00000000000000000000000000000000000000000000000000000000081526004016108709061167c565b60405180910390fd5b60006007600081548092919061088e906116cb565b9190505590506040518060a0016040528082815260200185858080601f016020809104026020016040519081016040528093929190818152602001838380828437600081840152601f19601f8201169050808301925050505050505081526020018681526020013373ffffffffffffffffffffffffffffffffffffffff168152602001428152506002600083815260200190815260200160002060008201518160000155602082015181600101908161094791906118ee565b506040820151816002015560608201518160030160006101000a81548173ffffffffffffffffffffffffffffffffffffffff021916908373ffffffffffffffffffffffffffffffffffffffff160217905550608082015181600401559050506004600086815260200190815260200160002081908060018154018082558091505060019003906000526020600020016000909190919091505584817f3303b7a197ac590a84781505c0737ad46de39d71e56fe3fd64bc0e844178e0a88686604051610a139291906119fc565b60405180910390a3809150509392505050565b60008060003373ffffffffffffffffffffffffffffffffffffffff1673ffffffffffffffffffffffffffffffffffffffff16815260200190815260200160002060010160009054906101000a900460ff16610ab6576040517f08c379a0000000000000000000000000000000000000000000000000000000008152600401610aad90611610565b60405180910390fd5b600060066000815480929190610acb906116cb565b9190505590506040518060a0016040528082815260200186868080601f016020809104026020016040519081016040528093929190818152602001838380828437600081840152601f19601f8201169050808301925050505050505081526020013373ffffffffffffffffffffffffffffffffffffffff1681526020018481526020014281525060016000838152602001908152602001600020600082015181600001556020820151816001019081610b8491906118ee565b5060408201518160020160006101000a81548173ffffffffffffffffffffffffffffffffffffffff021916908373ffffffffffffffffffffffffffffffffffffffff1602179055506060820151816003015560808201518160040155905050600360003373ffffffffffffffffffffffffffffffffffffffff1673ffffffffffffffffffffffffffffffffffffffff168152602001908152602001600020819080600181540180825580915050600190039060005260206000200160009091909190915055600560008481526020019081526020016000208190806001815401808255809150506001900390600052602060002001600090919091909150553373ffffffffffffffffffffffffffffffffffffffff16817fd4c21834735fdb678010292c602c868cc0d027684816ee703f7073f486b21dd08787604051610ccc9291906119fc565b60405180910390a3809150509392505050565b60056020528160005260406000208181548110610cfb57600080fd5b90600052602060002001600091509150505481565b6060600360008373ffffffffffffffffffffffffffffffffffffffff1673ffffffffffffffffffffffffffffffffffffffff168152602001908152602001600020805480602002602001604051908101604052809291908181526020018280548015610d9b57602002820191906000526020600020905b815481526020019060010190808311610d87575b50505050509050919050565b604051806040016040528083838080601f016020809104026020016040519081016040528093929190818152602001838380828437600081840152601f19601f820116905080830192505050505050508152602001600115158152506000803373ffffffffffffffffffffffffffffffffffffffff1673ffffffffffffffffffffffffffffffffffffffff1681526020019081526020016000206000820151816000019081610e5691906118ee565b5060208201518160010160006101000a81548160ff0219169083151502179055509050503373ffffffffffffffffffffffffffffffffffffffff167fa30b1bc903f249470380ba4d1836f1743af9eadf3831e4658603d8105eaa8b6d8383604051610ec29291906119fc565b60405180910390a25050565b60075481565b606060046000838152602001908152602001600020805480602002602001604051908101604052809291908181526020018280548015610f3357602002820191906000526020600020905b815481526020019060010190808311610f1f575b50505050509050919050565b60065481565b606060056000838152602001908152602001600020805480602002602001604051908101604052809291908181526020018280548015610fa457602002820191906000526020600020905b815481526020019060010190808311610f90575b50505050509050919050565b600080fd5b600080fd5b600073ffffffffffffffffffffffffffffffffffffffff82169050919050565b6000610fe582610fba565b9050919050565b610ff581610fda565b811461100057600080fd5b50565b60008135905061101281610fec565b92915050565b60006020828403121561102e5761102d610fb0565b5b600061103c84828501611003565b91505092915050565b600081519050919050565b600082825260208201905092915050565b60005b8381101561107f578082015181840152602081019050611064565b60008484015250505050565b6000601f19601f8301169050919050565b60006110a782611045565b6110b18185611050565b93506110c1818560208601611061565b6110ca8161108b565b840191505092915050565b60008115159050919050565b6110ea816110d5565b82525050565b6000604082019050818103600083015261110a818561109c565b905061111960208301846110e1565b9392505050565b6000819050919050565b61113381611120565b811461113e57600080fd5b50565b6000813590506111508161112a565b92915050565b60006020828403121561116c5761116b610fb0565b5b600061117a84828501611141565b91505092915050565b61118c81611120565b82525050565b61119b81610fda565b82525050565b600060a0820190506111b66000830188611183565b81810360208301526111c8818761109c565b90506111d76040830186611183565b6111e46060830185611192565b6111f16080830184611183565b9695505050505050565b6000806040838503121561121257611211610fb0565b5b600061122085828601611141565b925050602061123185828601611141565b9150509250929050565b60006020820190506112506000830184611183565b92915050565b600060a08201905061126b6000830188611183565b818103602083015261127d818761109c565b905061128c6040830186611192565b6112996060830185611183565b6112a66080830184611183565b9695505050505050565b600080604083850312156112c7576112c6610fb0565b5b60006112d585828601611003565b92505060206112e685828601611141565b9150509250929050565b6000602082019050818103600083015261130a818461109c565b905092915050565b600080fd5b600080fd5b600080fd5b60008083601f84011261133757611336611312565b5b8235905067ffffffffffffffff81111561135457611353611317565b5b6020830191508360018202830111156113705761136f61131c565b5b9250929050565b6000806000604084860312156113905761138f610fb0565b5b600061139e86828701611141565b935050602084013567ffffffffffffffff8111156113bf576113be610fb5565b5b6113cb86828701611321565b92509250509250925092565b6000806000604084860312156113f0576113ef610fb0565b5b600084013567ffffffffffffffff81111561140e5761140d610fb5565b5b61141a86828701611321565b9350935050602061142d86828701611141565b9150509250925092565b600081519050919050565b600082825260208201905092915050565b6000819050602082019050919050565b61146c81611120565b82525050565b600061147e8383611463565b60208301905092915050565b6000602082019050919050565b60006114a282611437565b6114ac8185611442565b93506114b783611453565b8060005b838110156114e85781516114cf8882611472565b97506114da8361148a565b9250506001810190506114bb565b5085935050505092915050565b6000602082019050818103600083015261150f8184611497565b905092915050565b6000806020838503121561152e5761152d610fb0565b5b600083013567ffffffffffffffff81111561154c5761154b610fb5565b5b61155885828601611321565b92509250509250929050565b7f4e487b7100000000000000000000000000000000000000000000000000000000600052602260045260246000fd5b600060028204905060018216806115ab57607f821691505b6020821081036115be576115bd611564565b5b50919050565b7f4255494c444552204e4f54205245474953544552454400000000000000000000600082015250565b60006115fa601683611050565b9150611605826115c4565b602082019050919050565b60006020820190508181036000830152611629816115ed565b9050919050565b7f4e4f5420594f5552204255494c44494e47000000000000000000000000000000600082015250565b6000611666601183611050565b915061167182611630565b602082019050919050565b6000602082019050818103600083015261169581611659565b9050919050565b7f4e487b7100000000000000000000000000000000000000000000000000000000600052601160045260246000fd5b60006116d682611120565b91507fffffffffffffffffffffffffffffffffffffffffffffffffffffffffffffffff82036117085761170761169c565b5b600182019050919050565b7f4e487b7100000000000000000000000000000000000000000000000000000000600052604160045260246000fd5b60008190508160005260206000209050919050565b60006020601f8301049050919050565b600082821b905092915050565b6000600883026117a47fffffffffffffffffffffffffffffffffffffffffffffffffffffffffffffffff82611767565b6117ae8683611767565b95508019841693508086168417925050509392505050565b6000819050919050565b60006117eb6117e66117e184611120565b6117c6565b611120565b9050919050565b6000819050919050565b611805836117d0565b611819611811826117f2565b848454611774565b825550505050565b600090565b61182e611821565b6118398184846117fc565b505050565b5b8181101561185d57611852600082611826565b60018101905061183f565b5050565b601f8211156118a25761187381611742565b61187c84611757565b8101602085101561188b578190505b61189f61189785611757565b83018261183e565b50505b505050565b600082821c905092915050565b60006118c5600019846008026118a7565b1980831691505092915050565b60006118de83836118b4565b9150826002028217905092915050565b6118f782611045565b67ffffffffffffffff8111156119105761190f611713565b5b61191a8254611593565b611925828285611861565b600060209050601f8311600181146119585760008415611946578287015190505b61195085826118d2565b8655506119b8565b601f19841661196686611742565b60005b8281101561198e57848901518255600182019150602085019450602081019050611969565b868310156119ab57848901516119a7601f8916826118b4565b8355505b6001600288020188555050505b505050505050565b82818337600083830152505050565b60006119db8385611050565b93506119e88385846119c0565b6119f18361108b565b840190509392505050565b60006020820190508181036000830152611a178184866119cf565b9050939250505056fea26469706673582212205e465ec27521c2c5760622c765d64b2c717d0669130eae04c3c28b82ca59422064736f6c634300081c0033",
  "linkReferences": {},
  "deployedLinkReferences": {}
}